:1000000007C1000035C1000033C1000031C100004C
:100010002FC100002DC100002BC1000029C100002C
:1000200027C1000025C1000023C1000021C100003C
:100030001FC100001DC100001BC1000019C100004C
:1000400017C100004EC7000013C1000011C100001D
:100050000FC100000DC100000BC1000040C5000031
:1000600007C1000006C50000DBC4000001C100009C
:10007000FFC00000FDC00000FBC00000F9C0000090
:1000800003C70000F5C00000F3C00000F1C000008D
:10009000EFC00000EDC00000EBC000006AC500002A
:1000A000E7C00000E5C00000C2C60000E1C00000DB
:1000B000DFC00000DDC00000DBC000008BC6000018
:1000C000D7C00000D5C00000D3C00000D1C00000E0
:1000D000CFC00000CDC00000CBC00000C9C00000F0
:1000E000C7C00000F302F602E502E902ED022D03AB
:1000F000FA02FE02040308030C03120316031A0398
:100100002D0320032403280300000A0B02090C0D11
:100110000E080703040100000000000000000000BA
:1001200000000000000000000000000000000000CF
:10013000000000001211100000000000000000008C
:1001400000000000000000000000000000000000AF
:100150002200250028002B002E003100340002016F
:100160000000050108010B01000021002400270008
:100170002A002D00300033000101000004010701B6
:100180000A0105050505070508080808020202021C
:100190000A0A080804040404010101010101010123
:1001A0000303030303030303040707070C0C0C0CEE
:1001B0000C0C0C0C020202020606060606060606D7
:1001C0000B0B0B0B0B0B0B0B010210202008081064
:1001D00020401020408002010201080402010102B7
:1001E0000408102040808040201008040201800490
:1001F00002018040201008040201080402010102EB
:1002000004081020408001020408102040809E074E
:1002100011241FBECFEFD1E2DEBFCDBF00E00CBF87
:1002200012E0A0E0B2E0E8E3F5E100E00BBF02C0BD
:1002300007900D92A632B107D9F725E0A6E2B2E009
:1002400001C01D92A338B207E1F711E0C8E0D1E088
:1002500000E006C021970109802FFE010E948E0A4E
:10026000C730D10780E00807A9F7A1D60C949A0AF5
:10027000C7CE90E0FC01E853FE4F2491FC01EE57FD
:10028000FE4F8491882399F090E0880F991FFC011C
:10029000E859FE4FA591B491FC01E25BFE4F8591B8
:1002A00094918FB7F894EC91E22BEC938FBF089563
:1002B000CF92DF92EF92FF920F931F93CF93DF9332
:1002C0006C017A018B01C0E0D0E0CE15DF0581F032
:1002D000D8016D918D01D601ED91FC910190F081D5
:1002E000E02DC6011995892B11F02196EECF7E01E4
:1002F000C701DF91CF911F910F91FF90EF90DF9099
:10030000CF900895E0915903F0915A03309729F066
:10031000109254031092530319940895CF93DF93CE
:10032000AC01E0915703F09158033097F1F09091B0
:100330005603809155039817C0F090E0292F30E0C4
:100340002617370754F4D901A054BD4FEA01C20F54
:10035000D31F28812C939F5FF1CF10925603609397
:100360005503CB01DF91CF911994DF91CF9108957F
:10037000FC01538D448D252F30E0842F90E0821BAB
:10038000930B541710F0CF96089501970895FC0130
:10039000918D828D981761F0828DDF01A80FB11DBC
:1003A0005D968C91928D9F5F9F73928F90E00895E0
:1003B0008FEF9FEF0895FC01918D828D981731F09A
:1003C000828DE80FF11D858D90E008958FEF9FEFEE
:1003D0000895FC01918D228D892F90E0805C9F4FC4
:1003E000821B91098F73992708958AED94E0F1DFBC
:1003F00021E0892B09F420E0822F0895FC01848DEF
:10040000DF01A80FB11DA35ABF4F2C91848D90E03E
:1004100001968F739927848FA689B7892C93A08919
:10042000B1898C91837080648C93938D848D9813A3
:1004300006C00288F389E02D80818F7D8083089536
:10044000EF92FF920F931F93CF93DF93EC0181E024
:10045000888F9B8D8C8D981305C0E889F9898081E0
:1004600085FD25C0F62E0B8D10E00F5F1F4F0F731B
:100470001127E02E8C8DE8120BC00FB607FCFACFC7
:10048000E889F989808185FFF5CFCE01B7DFF2CF0A
:100490008B8DFE01E80FF11DE35AFF4FF0829FB7ED
:1004A000F8940B8FEA89FB89808180620AC09FB72C
:1004B000F894EE89FF896083E889F98980818370E7
:1004C000806480839FBF81E090E0DF91CF911F9196
:1004D0000F91FF90EF900895CF93DF93EC01888DFB
:1004E0008823C1F0EA89FB89808185FD05C0A88940
:1004F000B9898C9186FD0EC00FB607FCF5CF8081BF
:1005000085FFF2CFA889B9898C9185FFEDCFCE0107
:1005100075DFE8CFDF91CF91089580E090E0892BDF
:1005200019F063DF811125C080E090E0892B41F054
:1005300080E090E0892B21F00E94000081111CC016
:1005400080E090E0892B41F080E090E0892B21F061
:100550000E940000811113C080E090E0892BA1F07F
:1005600080E090E0892B81F00E94000081110AC098
:1005700008950E940000D8CF0E940000E1CF0E94A1
:100580000000EACF0C9400000895362F90E0FC01A3
:10059000E85FFE4F4491FC01E853FE4F2491FC01BB
:1005A000EE57FE4F9491992309F46BC0442309F44C
:1005B00054C050E0FA013197E231F10508F04DC026
:1005C0008827EE58FF4F8F4FA9C7809180008F7703
:1005D00007C0809180008F7D03C080918000877F5D
:1005E000809380003AC084B58F7702C084B58F7D38
:1005F00084BD33C08091B0008F7703C08091B0007C
:100600008F7D8093B00029C0809190008F7707C0C4
:10061000809190008F7D03C080919000877F8093B0
:1006200090001BC08091A0008F7707C08091A00030
:100630008F7D03C08091A000877F8093A0000DC0B4
:10064000809120018F7707C0809120018F7D03C0AA
:1006500080912001877F80932001E92FF0E0EE0F49
:10066000FF1FE25BFE4FA591B4919FB7F894311143
:1006700004C08C912095282302C0EC912E2B2C9342
:100680009FBF08953FB7F894809148039091490324
:10069000A0914A03B0914B0326B5A89B05C02F3FFC
:1006A00019F00196A11DB11D3FBFBA2FA92F982F98
:1006B0008827820F911DA11DB11DBC01CD0142E013
:1006C000660F771F881F991F4A95D1F708958F925B
:1006D0009F92AF92BF92CF92DF92EF92FF926B0107
:1006E0007C01D0DF4B015C01C114D104E104F104B1
:1006F000E9F0C8DFDC01CB0188199909AA09BB0917
:10070000883E9340A105B10578F321E0C21AD108D3
:10071000E108F10888EE880E83E0981EA11CB11C48
:10072000C114D104E104F10421F7DECFFF90EF9072
:10073000DF90CF90BF90AF909F908F90089585ED00
:100740008093BC008091BC0084FDFCCF10925203CA
:10075000089540910003262F30E0240F311D2132EF
:100760003105DCF4209152032430C9F4FC0180E00F
:1007700090E0861758F4309100032191DC01A052DB
:10078000BD4FA30FB11D2C930196F3CF80910003B1
:10079000680F6093000380E0089581E0089582E08F
:1007A00008950895E091560380915503E81730F4B9
:1007B000F0E0E054FD4F808190E008958FEF9FEFCF
:1007C00008959091560380915503981750F4E92F9E
:1007D000F0E0E054FD4F208130E09F5F909356039E
:1007E00002C02FEF3FEFC90108958091550390E0BB
:1007F00020915603821B91090895CF93DF93CB017B
:10080000EA01642FA6DFCE01DF91CF910895ECEAD3
:10081000F4E090818181890F9281890F9381890F02
:10082000848395818681890F9781890F9085890FAF
:1008300081874AE050E0BF0187E795E0DECFCF93A4
:10084000DF931F92CDB7DEB7698361E0CE010196D9
:1008500080DF81E090E00F90DF91CF9108950895BF
:1008600080E090E00895CF93DF93DB01EA01FC0183
:10087000E454FD4F208127FF04C011961C921E9264
:100880000DC040815CE0589F9001599F300D1124AC
:10089000240F311D47FD3A9537FD208120812F5FC0
:1008A00020834CE0489F9001499F300D11248081A6
:1008B000A901480F511D87FD5A9557FF1EC0808121
:1008C0008C30DCF44D915C918081B901680F711D11
:1008D00087FD7A95CB01DB01AA0FBB1F8A0F9B1FF7
:1008E000DC01A45DBD4F11968D919C911297840FF0
:1008F000951F99838883808111C08D919C91119758
:10090000049680349C4918F480E49CE903C08D91DE
:100910009C910496998388838FEF8083DF91CF9198
:100920000895FF920F931F93CF93DF93F62E809538
:10093000C0E0D0E0082F10E0B8018C2F0C2E02C0D0
:10094000759567950A94E2F761708F0D1EDE21960A
:10095000C830D10589F7DF91CF911F910F91FF909A
:100960000895CF93DF93EC0199819431B9F028F485
:10097000933089F09E3079F02BC09932A9F09A32E9
:10098000D9F0983229F560915B0370E08A81C9DF64
:1009900060915C0318C08B8180930002EA81F0E0D3
:1009A000E55AFC4F60810FC060915D0370E08A8161
:1009B000B8DF60915E0307C060915F0370E08A81D9
:1009C000B0DF6091600370E08B81DF91CF91A9CFA0
:1009D000DF91CF9108958091550390E020915603C7
:1009E000821B910918161906CCF487E795E0E9DE19
:1009F00090912B02E92FF0E0EA5DFD4F80839F5F2D
:100A000090932B02953038F380912602843019F7A9
:100A100010922B0286E292E0A4DFDDCF089586D506
:100A20001F920F920FB60F9211240BB60F922F93B5
:100A30003F934F935F936F937F938F939F93AF9366
:100A4000BF93EF93FF938AED94E0D8DCFF91EF9191
:100A5000BF91AF919F918F917F916F915F914F91D6
:100A60003F912F910F900BBE0F900FBE0F901F90D4
:100A700018951F920F920FB60F9211240BB60F927A
:100A80002F938F939F93EF93FF93E091EA04F0915C
:100A9000EB048081E091F004F091F10482FD12C03A
:100AA00090818091F3048F5F8F732091F4048217FB
:100AB00051F0E091F304F0E0E652FB4F958F809304
:100AC000F30401C08081FF91EF919F918F912F914D
:100AD0000F900BBE0F900FBE0F901F9018951F9296
:100AE0000F920FB60F9211242F933F938F939F93E2
:100AF000AF93BF938091A8049091A904A091AA04F8
:100B0000B091AB043091470323E0230F2D3720F43D
:100B10000196A11DB11D05C026E8230F0296A11D57
:100B2000B11D209347038093A8049093A904A09338
:100B3000AA04B093AB048091480390914903A0911B
:100B40004A03B0914B030196A11DB11D8093480348
:100B500090934903A0934A03B0934B03BF91AF9185
:100B60009F918F913F912F910F900FBE0F901F90EB
:100B700018951F920F920FB60F9211240BB60F9279
:100B80002F933F934F935F936F937F938F939F9395
:100B9000AF93BF93EF93FF938091B900887F803626
:100BA00009F49CC068F5883209F45BC090F4803188
:100BB00009F454C038F4882309F4F6C0883009F4E5
:100BC0004DC0F5C0883109F44CC0803209F45DC0D5
:100BD000EEC0803409F468C048F4803309F455C08D
:100BE000883309F0E4C080932303D8C0803509F42A
:100BF0004FC0883509F45DC0883409F0D8C0D6C02C
:100C0000883909F4C7C0A8F4883709F467C038F4F4
:100C1000883609F463C0803709F460C0C8C08838DA
:100C200009F4B8C0803909F45FC0803809F0BFC04A
:100C30005BC0803B09F486C038F4803A09F466C092
:100C4000883A09F47FC0B3C0803C09F4A7C0883C4F
:100C500009F4A4C0883B09F48AC0A9C08091460366
:100C600010C09091450380914403981770F5E0916E
:100C7000450381E08E0F80934503F0E0EC5DFC4F6F
:100C800080818093BB0085EC86C0809323038EC057
:100C9000E091450381E08E0F809345038091BB0076
:100CA000F0E0EC5DFC4F808390914503809144031C
:100CB0006EC0E091450381E08E0F809345038091E3
:100CC000BB00F0E0EC5DFC4F80838091510381110B
:100CD0006DC081E08093500384EA61C083E080931B
:100CE000520310922203CFCF80912203803208F06A
:100CF00051C0E091220381E08E0F80932203809106
:100D0000BB00F0E0EE5FFC4F8083BDCF85EC8093AD
:100D1000BC001092520380912203803230F4E091A3
:100D20002203F0E0EE5FFC4F10826091220370E03E
:100D3000E0914C03F0914D0382E093E019951092FD
:100D4000220335C084E08093520310920103109275
:100D50000003E0914E03F0914F0319958091000339
:100D6000811105C081E0809300031092E002E091C0
:100D7000010381E08E0F80930103F0E0E052FD4F0C
:100D800080818093BB0090910103809100039817AC
:100D900008F479CF85E88093BC0009C085EC809386
:100DA000BC001092520303C010922303C8DCFF91D1
:100DB000EF91BF91AF919F918F917F916F915F91D3
:100DC0004F913F912F910F900BBE0F900FBE0F9040
:100DD0001F9018951F920F920FB60F9211240BB609
:100DE0000F922F933F934F935F936F937F938F93C4
:100DF0009F93AF93BF93EF93FF9348E251E064E278
:100E000071E080E090E02FDDFF91EF91BF91AF9115
:100E10009F918F917F916F915F914F913F912F9112
:100E20000F900BBE0F900FBE0F901F9018951F9242
:100E30000F920FB60F9211240BB60F922F933F9380
:100E40004F935F936F937F938F939F93AF93BF93D2
:100E5000EF93FF9348EA50E064EA70E083E090E0AB
:100E600002DDFF91EF91BF91AF919F918F917F91A3
:100E70006F915F914F913F912F910F900BBE0F900B
:100E80000FBE0F901F9018951F920F920FB60F92E2
:100E900011240BB60F922F933F934F935F936F9351
:100EA0007F938F939F93AF93BF93EF93FF9348E903
:100EB00050E064E970E082E090E0D5DCFF91EF91D2
:100EC000BF91AF919F918F917F916F915F914F9162
:100ED0003F912F910F900BBE0F900FBE0F901F9060
:100EE00018951F920F920FB60F9211240BB60F9206
:100EF0002F933F934F935F936F937F938F939F9322
:100F0000AF93BF93EF93FF9348E850E064E870E03D
:100F100081E090E0A8DCFF91EF91BF91AF919F91AC
:100F20008F917F916F915F914F913F912F910F9092
:100F30000BBE0F900FBE0F901F901895EAEDF4E0D6
:100F40001382128288EE93E0A0E0B0E08483958360
:100F5000A683B78325E032E03183208325EC30E09F
:100F60003587248724EC30E03787268720EC30E073
:100F7000318B208B21EC30E0338B228B22EC30E064
:100F8000358B248B26EC30E0378B268B118E128E1E
:100F9000138E148EE7E7F5E0138212828483958323
:100FA000A683B78387E192E0918380830895CF93EE
:100FB000DF9300D01F92CDB7DEB7789484B58260FE
:100FC00084BD84B5816084BD85B5826085BD85B5ED
:100FD000816085BD80916E00816080936E0010926B
:100FE00081008091810082608093810080918100E6
:100FF0008160809381008091800081608093800077
:101000008091B10084608093B1008091B0008160D4
:101010008093B000809191008260809391008091D4
:101020009100816080939100809190008160809315
:1010300090008091A10082608093A1008091A10026
:1010400081608093A1008091A00081608093A000C6
:101050008091210182608093210180912101816032
:1010600080932101809120018160809320018091F3
:101070007A00846080937A0080917A008260809305
:101080007A0080917A00816080937A0080917A0062
:10109000806880937A001092C100E091EA04F09198
:1010A000EB0482E08083E091E604F091E704108293
:1010B000E091E804F091E9048FEC80831092F2044F
:1010C000E091EE04F091EF0486E08083E091EC047F
:1010D000F091ED04808180618083E091EC04F091D7
:1010E000ED04808188608083E091EC04F091ED0450
:1010F000808180688083E091EC04F091ED04808130
:101100008F7D8083109256031092550310925403E2
:10111000109253031092520381E080935103109276
:10112000500361E084E131DA61E085E12EDA8091FB
:10113000B9008E7F8093B9008091B9008D7F809334
:10114000B90088E48093B80085E48093BC0082E80D
:1011500091E090934F0380934E038EE891E090933B
:101160004D0380934C0388E08093BA008BEE94E0AB
:10117000909358038093570387E094E090935A0329
:101180008093590322E02983898173D860E08981A3
:10119000FCD989818F5F89838231B1F796E1998388
:1011A000898167D860E08981F0D9A981AF5FA9837F
:1011B000A633B1F760ED77E080E090E088DAB6E141
:1011C000B983898156D861E08981DFD929812F5F70
:1011D00029832633B1F782E0898389814AD861E087
:1011E0008981D3D999819F5F99839231B1F782E048
:1011F00080935B03AAE0A0935C0386E180935D0388
:101200008EE180935E0386E280935F038EE280939B
:10121000600382E12ED883E12CD884E08093AC0473
:10122000BAE0B093AD048093B1048BE08093B20434
:1012300088E693E068EA74E0E6EBF4E04FEF419370
:1012400020E030E0DC01A20FB31F4C932F5F3F4F33
:101250002A303105B9F70A966817790781F7C12C4A
:10126000D12C7601C39461E070E080E090E02FDA49
:101270008AED94E0AED8181619066CF580916603D5
:10128000909167039A838983059764F48AED94E0CB
:101290007ED8E981FA81EF59FC4F8083682F8AED6F
:1012A00094E0CED8A981BA811196B0936703A09338
:1012B00066031597ECF22091610380916203820F1F
:1012C00090916303890F90916403890F9091650356
:1012D0008913CECFCDC0A12CB12CB6EB8B2EB4E0B0
:1012E0009B2E02E112E01C821B8261E082E14DD95B
:1012F00061E083E14AD960E0802F47D9F40140E002
:1013000050E020E030E06B807C806A0C7B1C19018F
:1013100087E028223324B901A3E075956795AA9543
:10132000E1F7610F80917B00877F922F987F892B57
:1013300080937B00822F8770806480937C008091F3
:101340007A00806480937A0080917A0086FDFCCFD9
:101350008091780070917900DA01A60DB71DA85927
:10136000BC4F90E0972B97FD0396959587959595A3
:1013700087958C93FA83E9839FEF908380E090E0D8
:101380004B805C80440E551EDC01A40DB51DA85990
:10139000BC4F7C91A0817A1708F4708301968A3043
:1013A000910591F73196A981BA819C9180910002B3
:1013B000A62FB0E0A455BB4F981760F4C701B60143
:1013C00004C0660F771F881F991F2A94D2F75C907C
:1013D00065290CC0C701B60104C0660F771F881FBE
:1013E000991F2A94D2F760958C9168236C932F5F94
:1013F0003F4F465F5F4F2031310509F088CF0F5FC7
:101400008B819C8180569F4F9C838B8390E1890EBA
:10141000911C1B5FAB81BC81A034B14009F065CF4A
:101420008FEFA81AB80A9AE0A916B10409F055CFAF
:1014300061E082E1AAD861E083E1A7D84091D604B7
:101440005091D7046091D8047091D9042FB7F894C3
:101450008091A8049091A904A091AA04B091AB0432
:101460002FBF481759076A077B07B0F056D8FBCE45
:10147000243019F481E693E074DA809161038111DC
:1014800006C0B1E0B093610381E693E06ADA10929E
:10149000670310926603ECCE40E250E066EB74E026
:1014A0008AED94E00E945801A0910002A9836A2F5E
:1014B0008AED94E00E9420026091B4048AED94E0E9
:1014C0000E9420026091B3048AED94E00E94200201
:1014D0006091AF048AED94E00E9420026091AE0416
:1014E0008AED94E00E94200269818AED94E00E94D6
:1014F00020028091D6049091D704A091D804B09195
:10150000D90488519C4FAF4FBF4F8093D60490931E
:10151000D704A093D804B093D904A8CFEE0FFF1F2F
:10152000881F8BBF0790F691E02D199481E090E021
:08153000F89400C0F894FFCF0D
:10153800FC0000000020025801B8016C02E901C754
:1015480001DB01000000001F04FD033004D103F596
:0615580003E103D20300D1
:00000001FF
